:100000000C9462000C948A000C948A000C948A0070
:100010000C948A000C948A000C948A000C948A0038
:100020000C948A000C948A000C948A000C948A0028
:100030000C948A000C948A000C948A000C948A0018
:100040000C94D0020C948A000C949E020C947802BA
:100050000C948A000C948A000C948A000C948A00F8
:100060000C948A000C948A00000000080002010031
:100070000003040700000000000000000000000072
:1000800023002600290000000000250028002B0086
:1000900000000000240027002A00040404040404D3
:1000A0000404020202020202030303030303010227
:1000B00004081020408001020408102001020408F6
:1000C0001020860411241FBECFEFD8E0DEBFCDBFC5
:1000D00011E0A0E0B1E0E8EDFBE002C005900D9278
:1000E000A437B107D9F722E0A4E7B1E001C01D921F
:1000F000AA31B207E1F710E0C2E6D0E004C02197D0
:10010000FE010E94E405C136D107C9F70E945F03D2
:100110000C94EA050C94000090E0FC01E255FF4FBE
:10012000249186569F4FFC018491882399F090E09A
:10013000880F991FFC01E057FF4FA591B491FC0176
:10014000EA57FF4F859194918FB7F894EC91E22B89
:10015000EC938FBF0895AF92BF92CF92DF92EF9250
:10016000FF920F931F93CF93DF936C017B018B0161
:10017000040F151FEB015E01AE18BF08C017D107B1
:1001800059F06991D601ED91FC910190F081E02D3B
:10019000C6010995892B79F7C501DF91CF911F9190
:1001A0000F91FF90EF90DF90CF90BF90AF900895A8
:1001B000FC01538D448D252F30E0842F90E0821B6D
:1001C000930B541710F0CF96089501970895FC01F2
:1001D000918D828D981761F0A28DAE0FBF2FB11D4A
:1001E0005D968C91928D9F5F9F73928F90E00895A2
:1001F0008FEF9FEF0895FC01918D828D981731F05C
:10020000828DE80FF11D858D90E008958FEF9FEFAF
:100210000895FC01918D228D892F90E0805C9F4F85
:10022000821B91098F73992708958DE791E00E94B1
:10023000090121E0892B09F420E0822F089580E054
:1002400090E0892B29F00E94150181110C94000087
:100250000895FC01A48DA80FB92FB11DA35ABF4F5B
:100260002C91848D90E001968F739927848FA689B5
:10027000B7892C93A089B1898C91837080648C9309
:10028000938D848D981306C00288F389E02D8081B8
:100290008F7D80830895EF92FF920F931F93CF93EA
:1002A000DF93EC0181E0888F9B8D8C8D98131AC0B1
:1002B000E889F989808185FF15C09FB7F894EE8998
:1002C000FF896083E889F9898081837080648083F5
:1002D0009FBF81E090E0DF91CF911F910F91FF9040
:1002E000EF900895F62E0B8D10E00F5F1F4F0F73E8
:1002F0001127E02E8C8D8E110CC00FB607FCFACFA3
:10030000E889F989808185FFF5CFCE010E94290116
:10031000F1CFEB8DEC0FFD2FF11DE35AFF4FF08273
:100320009FB7F8940B8FEA89FB8980818062CFCFD9
:10033000CF93DF93EC01888D8823B9F0AA89BB891C
:10034000E889F9898C9185FD03C0808186FD0DC007
:100350000FB607FCF7CF8C9185FFF2CF808185FF28
:10036000EDCFCE010E942901E9CFDF91CF91089511
:1003700090E0FC01E859FF4F2491FC01E255FF4F4A
:100380003491FC01E656FF4FE491EE23C9F022239D
:1003900039F0233001F1A8F4213019F1223029F18C
:1003A000F0E0EE0FFF1FEA57FF4FA591B4918FB712
:1003B000F894EC91611126C030953E233C938FBF99
:1003C00008952730A9F02830C9F0243049F78091EA
:1003D00080008F7D03C0809180008F7780938000A4
:1003E000DFCF84B58F7784BDDBCF84B58F7DFBCF26
:1003F0008091B0008F778093B000D2CF8091B00011
:100400008F7DF9CF3E2BDACF3FB7F89480917901F9
:1004100090917A01A0917B01B0917C0126B5A89BB7
:1004200005C02F3F19F00196A11DB11D3FBFBA2F86
:10043000A92F982F8827BC01CD01620F711D811D46
:10044000911D42E0660F771F881F991F4A95D1F7CB
:1004500008958F929F92AF92BF92CF92DF92EF92C8
:10046000FF924B015C010E9404026B017C010E941F
:1004700004026C197D098E099F09683E734081054D
:100480009105A8F321E0821A9108A108B10888EE2D
:10049000C80E83E0D81EE11CF11C81149104A10454
:1004A000B10429F7FF90EF90DF90CF90BF90AF900D
:1004B0009F908F900895CF93DF93FC0101900020CF
:1004C000E9F73197AF01481B590BBC018DE791E06B
:1004D0000E94AB00EC0142E050E062E171E08DE788
:1004E00091E00E94AB008C0F9D1FDF91CF9108958A
:1004F0001F920F920FB60F9211242F933F934F9399
:100500005F936F937F938F939F93AF93BF93EF937B
:10051000FF938DE791E00E942901FF91EF91BF9138
:10052000AF919F918F917F916F915F914F913F918B
:100530002F910F900FBE0F901F9018951F920F9242
:100540000FB60F9211242F938F939F93EF93FF93E6
:10055000E0918D01F0918E018081E0919301F09105
:10056000940182FD1BC09081809196018F5F8F73F3
:1005700020919701821741F0E0919601F0E0E35855
:10058000FE4F958F80939601FF91EF919F918F91F0
:100590002F910F900FBE0F901F9018958081F4CF70
:1005A0001F920F920FB60F9211242F933F938F93A8
:1005B0009F93AF93BF938091750190917601A09125
:1005C0007701B09178013091740123E0230F2D372A
:1005D00058F50196A11DB11D2093740180937501FA
:1005E00090937601A0937701B0937801809179017F
:1005F00090917A01A0917B01B0917C010196A11D9F
:10060000B11D8093790190937A01A0937B01B093FF
:100610007C01BF91AF919F918F913F912F910F904E
:100620000FBE0F901F90189526E8230F0296A11D6C
:10063000B11DD2CFCF92DF92EF92FF920F931F9313
:10064000E82FF92F05C0015011092109310961F185
:10065000908196239417B9F305C00150110921091F
:10066000310911F1908196239413F7CFC12CD12C2D
:10067000E12CF12C0AC08FEFC81AD80AE80AF80A50
:100680000C151D052E053F0579F080818623841702
:1006900091F36C2D7D2D8E2D9F2D1F910F91FF902D
:1006A000EF90DF90CF90089560E070E080E090E000
:1006B0001F910F91FF90EF90DF90CF900895789465
:1006C00084B5826084BD84B5816084BD85B5826057
:1006D00085BD85B5816085BD80916E008160809308
:1006E0006E00109281008091810082608093810071
:1006F0008091810081608093810080918000816081
:10070000809380008091B10084608093B1008091DB
:10071000B00081608093B00080917A008460809303
:100720007A0080917A00826080937A0080917A00CA
:10073000816080937A0080917A00806880937A004B
:100740001092C100E0918D01F0918E0182E08083D2
:10075000E0918901F0918A011082E0918B01F09182
:100760008C018FEC808310929501E0919101F091C2
:10077000920186E08083E0918F01F0919001808169
:1007800080618083E0918F01F09190018081886089
:100790008083E0918F01F091900180818068808357
:1007A000E0918F01F091900180818F7D808385E0C1
:1007B0000E948C0084E00E948C00CFE0D0E093E2A5
:1007C000E92EF12C20EBC22E20E0D22E3CE9A32E04
:1007D00030E0B32E40E0842E40E0942E60E085E0CF
:1007E0000E94B80160E084E00E94B80160E083E00C
:1007F0000E94B801CE010197F1F761E083E00E9409
:10080000B801C7010197F1F760E083E00E94B801E9
:10081000F6016491F5018491E82FF0E0EE0FFF1FDF
:10082000E458FF4F8591949100E412E42FE030E00A
:10083000462F0E941A03611571058105910529F063
:100840006F5F7F4F8F4F9F4F9F70072E000C880B5D
:10085000990B0E94EB0426E933E44BE05DE30E9430
:100860004F0520E030E040E05FE30E944F050E942A
:10087000B3046C337105F4F585E191E00E945B02ED
:1008800068EE73E080E090E00E94290288E291E047
:100890000E945B0260ED77E080E090E00E94290218
:1008A0008BE391E00E945B0268EE73E080E090E0F1
:1008B0000E94290282E591E00E945B0261E084E0EF
:1008C0000E94B80164E670E080E090E00E94290296
:1008D0008CE591E00E945B0282E791E00E945B025E
:1008E00061E085E00E94B80168EE73E080E090E08E
:1008F0000E9429028114910409F470CF0E9415010D
:10090000882309F46BCF0E94000068CFEDE7F1E087
:100910001382128288EE93E0A0E0B0E08483958396
:10092000A683B78384E091E09183808385EC90E097
:100930009587848784EC90E09787868780EC90E0A9
:10094000918B808B81EC90E0938B828B82EC90E09A
:10095000958B848B86EC90E0978B868B118E128E14
:10096000138E148E08950E94BA046894B1110C94E9
:10097000490508950E942E0588F09F5798F0B92FD9
:100980009927B751B0F0E1F0660F771F881F991FC4
:100990001AF0BA95C9F714C0B13091F00E94480519
:1009A000B1E008950C944805672F782F8827B85F29
:1009B00039F0B93FCCF3869577956795B395D9F71C
:1009C0003EF490958095709561957F4F8F4F9F4F26
:1009D0000895E89409C097FB3EF490958095709532
:1009E00061957F4F8F4F9F4F9923A9F0F92F96E97B
:1009F000BB279395F695879577956795B795F111F0
:100A0000F8CFFAF4BB0F11F460FF1BC06F5F7F4F8C
:100A10008F4F9F4F16C0882311F096E911C077239E
:100A200021F09EE8872F762F05C0662371F096E8A7
:100A3000862F70E060E02AF09A95660F771F881F76
:100A4000DAF7880F9695879597F9089557FD90588E
:100A5000440F551F59F05F3F71F04795880F97FB82
:100A6000991F61F09F3F79F087950895121613063C
:100A70001406551FF2CF4695F1DF08C0161617066B
:100A80001806991FF1CF86957105610508940895A0
:100A9000E894BB2766277727CB0197F908950E9432
:100AA00062050C94D3050E94C50538F00E94CC0560
:100AB00020F0952311F00C94BC050C94C205112470
:100AC0000C9449050E94260570F3959FC1F3950F7C
:100AD00050E0551F629FF001729FBB27F00DB11DC2
:100AE000639FAA27F00DB11DAA1F649F6627B00D52
:100AF000A11D661F829F2227B00DA11D621F739F3B
:100B0000B00DA11D621F839FA00D611D221F749F48
:100B10003327A00D611D231F849F600D211D822F8F
:100B2000762F6A2F11249F5750409AF0F1F08823B6
:100B30004AF0EE0FFF1FBB1F661F771F881F9150E3
:100B40005040A9F79E3F510580F00C94BC050C94D1
:100B500049055F3FE4F3983ED4F386957795679512
:100B6000B795F795E7959F5FC1F7FE2B880F911D0D
:100B70009695879597F9089597F99F6780E870E0B3
:100B800060E008959FEF80EC089500240A94161603
:100B9000170618060906089500240A94121613066B
:100BA000140605060895092E0394000C11F48823F9
:100BB00052F0BB0F40F4BF2B11F460FF04C06F5F15
:100BC0007F4F8F4F9F4F0895EE0FFF1F0590F491B9
:080BD000E02D0994F894FFCF19
:100BD800000000004B01AB00D80098010901E700B4
:100BE800FB000D0A0056656869636C6520417070EA
:100BF800726F616368656400436865636B696E67FB
:100C080020446F63756D656E747300446F63756D12
:100C1800656E7473206172652056657269666965D0
:100C280064004F70656E2047617465005468616E9A
:100C38006B20796F752C20596F752063616E206762
:040C48006F00200019
:00000001FF
